:020000040800F2
:1000000028270020CD9600082D8F00082F8F00088C
:10001000318F0008338F0008358F00080000000082
:10002000000000000000000000000000378F000802
:10003000398F0008000000003B8F00083D8F00084A
:10004000F1960008F5960008F9960008FD9600085C
:100050000197000805970008658F00086B8F00085E
:10006000718F000809970008778F00080D97000826
:100070001197000815970008199700081D970008A8
:100080002197000825970008299700084B8F000842
:100090004D8F0008558F0008578F00087D8F00088E
:1000A0002D97000831970008359700083997000808
:1000B0003D970008838F0008419700084597000886
:1000C000499700084D970008519700085597000878
:1000D000599700085D970008598F00085F8F000846
:1000E0006197000865970008699700086D970008F8
:1000F0007197000875970008799700087D970008A8
:1001000081970008898F0008859700088997000863
:100110008D97000891970008959700089997000817
:100120009D970008A1970008A59700088F8F0008E9
:10013000A9970008AD970008B1970008B597000887
:10014000B9970008BD970008C1970008C597000837
:10015000C9970008958F0008CD970008D19700082F
:10016000D5970008D9970008DD970008E1970008A7
:10017000E5970008E9970008ED97000800000000E7
:10018000F1970008F59700084178007807E0C178FA
:10019000827842EA01224178007841EA022140EA6D
:1001A000012070470170090A417070470170090A07
:1001B0004170090A8170090AC17070472AB111F8AB
:1001C000013B00F8013B521EF9D17047521E00F866
:1001D000011BFBD17047F0B5024600230024DFF875
:1001E0004C5905EB0416306880B11768B84202BF5D
:1001F00070689768B84202BFB0685669B04206D1CD
:10020000022C0AD193B9022905D10FE00123641C05
:10021000022CE6D3F4E71220F0BD29B905EB041057
:100220008289B2F5807F01D11020F0BD0020F0BDA1
:10023000F0B5024694681568DFF8F06800231801ED
:100240003758AF4202BF371D3F58A74201BF06F1E2
:10025000080738585769B84202D05B1C012BEED909
:10026000022B11D13068002300281EBF0123306902
:1002700000280ED1180137183D607C6006F1080493
:10028000526922500020B88106EB0312908929B1EF
:1002900008B10020F0BD4FF4807000E0401C908158
:1002A000581CF0BD10B5401E022814D20001DFF822
:1002B0007C180A189389B3F5807F01D01C0002D105
:1002C0000023938103E05B1E93819BB20BB9002254
:1002D0000A50002010BD022010BD30B50021DFF80B
:1002E0004C2800250B01D458844208BFD550491C26
:1002F0000129F7D930BDF8B505460024E878A0B14A
:10030000EE6A00F014F808B101240EE0E870296AE2
:10031000A869711A814208D2AF7804E0A8698619E9
:1003200000F005F87F1E012FF8D82046F2BD68784E
:100330000123324605F1300101F04AB970B5044697
:100340000D46E06A002685420DD02046FFF7D3FF18
:10035000060008D16078012301F02AF810B14FF0AF
:10036000FF350126E562304670BD38B50446FFF71B
:10037000C2FF050037D12078032804BF2079012867
:100380002AD14FF40072002104F13000FFF71EFF64
:100390004AF6552104F22E20FFF704FFDFF8681A11
:1003A00004F13000FFF702FFDFF8601A04F5057072
:1003B000FFF7FCFE216904F50670FFF7F7FEE16820
:1003C00004F50770FFF7F2FEE2696078521CE26202
:1003D00000F0D0FF0020207100226078002101F0A1
:1003E00005F900B10125284632BD4269891E921ED9
:1003F000914201D3002070474289806A02FB0101CB
:10040000084670472DE9F0410C460568022C47D399
:100410006869844244D2297801294FF0FF3604D01C
:100420003ED303292CD01CD33AE0296A04EB5407AD
:1004300000F067FA002834D100F0AAF810F8018023
:10044000296A00F05EFA60BB05F13000C7F30807C7
:10045000C15D48EA0126E00754BFC6F30B06360922
:100460001FE0296A01EB142100F04DFAC8B905F12B
:100470003000240600EBD450FFF786FE064610E05D
:10048000296A01EBD41100F03EFA50B905F13000B1
:10049000640600EBD450FFF77AFE20F0704600E0CF
:1004A00001263046BDE8F0812DE9F0410E46022ECE
:1004B000054614464FF0020867D36869864264D245
:1004C0002978012904D060D3032943D031D35CE0DB
:1004D000296A06EB560700F014FA5FEA000854D1C7
:1004E00000F056F80844F20743BF017801F00F010D
:1004F00041EA0411214601700120E8702846296A6A
:1005000001EB5721FFF71AFF5FEA00083DD105F123
:100510003000C7F30807C019F10748BF240906D403
:100520000178240A01F0F00104F00F040C43047078
:1005300029E0296A01EB162100F0E5F95FEA0008DD
:1005400023D105F130003606A1B200EBD650FFF7FB
:1005500029FE18E0296A01EBD61100F0D4F95FEA10
:10056000000812D105F13000760600EBD656304671
:10057000FFF70DFE24F0704400F0704040EA0401E3
:100580003046FFF713FE0120E8704046BDE8F081D9
:1005900005F13000C7F308017F1C7047F8B5054628
:1005A0000F462E68012F114629D97069874226D23D
:1005B00029B14FF0FF3200F078F801001ED1394622
:1005C0002846FFF71FFF040017D0012C17D014F1A5
:1005D000010F16D0002200F067F801000ED17069FB
:1005E0003169821E914205D2491C3161317941F055
:1005F0000101317127468742E1D30020F2BD02207C
:10060000F2BD0120F2BD2DE9F04180460C00D8F882
:10061000006006D1F56815B1706985420ED30125D9
:100620000CE0FFF7EFFE012898BF01203AD910F146
:10063000010F37D07169884234D325462F4670693F
:100640007F1C874202D30227012D0BD93946404631
:10065000FFF7D8FE40B1012818BF10F1010F21D0DB
:10066000AF42ECD100201DE04FF0FF3200F01CF84B
:1006700090B924B13A46214600F017F860B9F76006
:1006800071693069891E814224BF401E3061307912
:1006900040F00100307104E001280CBF4FF0FF373B
:1006A00001273846BDE8F08139463046FCE6C26A8B
:1006B00000684389490A121DB1FBF3F003E0884248
:1006C00006D3401A083211680029F8D1002070477B
:1006D0005168081870472DE9F04105460E462F680D
:1006E000B6F5001F2DD216F01F0F2AD1AC686E612F
:1006F00054B93878032801DB7C6A2CB93989700930
:1007000088421ED2786A18E0B7F80A8006E0022C08
:1007100017D37869844214D2A6EB4826B6EB482F4B
:10072000214608D32846FFF76DFE044614F1010F59
:10073000EDD1012011E000F083F8E861AC61E869D7
:1007400008B9022009E000EB5620E861C6F308066C
:10075000B81900F1300129620020BDE8F0812DE9CF
:10076000F04106460C4675693768F069203510B3CC
:10077000B5F5001F1FD2E90557D1401CB169F061E2
:1007800021B93989680988424FD312E07889401E1F
:1007900010EA552F49D13046FFF734FE8046B8F1B4
:1007A000010F16D918F1010F35D07869804537D37C
:1007B0001CB90020F06104203FE0B1693046FFF72A
:1007C00022FF5FEA000808BF072036D0B8F1010F0A
:1007D00001D1022031E018F1010F1CD03846FFF79B
:1007E0008AFDC0B94FF40072002107F13000FFF715
:1007F000EDFC00F024F8002402E0F86A641C401CC0
:10080000F8627889844208D20121F9703846FFF7EE
:1008100072FD0028F1D001200FE0F86A041BFC6291
:10082000C6F8188000F00BF8F061756107F1300030
:10083000C5F30805411931620020BDE8F081414649
:100840003846D2E570B504460D4605F11A00FFF7AB
:100850009BFC21780329064605D105F11400FFF71A
:1008600093FC46EA0046304670BD70B504460D461E
:100870001646B1B205F11A00FFF794FC217803295E
:1008800005D1310C05F11400BDE870408AE470BD5B
:10089000F8B5054600212C68FFF71DFF070016D1AB
:1008A0000026E9692046FFF749FD07000FD1286AB5
:1008B0000078E5281CBF0028002602D1761C012EF6
:1008C00008D001212846FFF74AFF0700E9D0042F8E
:1008D00008BF0727380012D1E9692046FFF72EFD2F
:1008E00007000CD1286A20220021FFF76FFC286A3C
:1008F0000B2205F12401FFF761FC0120E07038466E
:10090000F2BD01EB5721284618E52DE9F8430446CE
:100910000F46D4F8008000E07F1C38782F2818BFDD
:100920005C28F9D00020A06004F124063978202941
:100930002BD28022F27200212046FFF7CCFE024625
:1009400090E03278E52A04BF05203070202DCCBF1E
:1009500000200420F072002125682046FFF7BBFE2E
:1009600002006FD0F07A110077D140077AD4A179D4
:10097000C80676D56169C1F3080108EB010000F1F2
:1009800030014046FFF75EFFA0600B222021304679
:10099000FFF71CFC0021002208230FF2D00CDFF827
:1009A00068E60FE009F1010999F80000002818BF76
:1009B000A842F7D140BBA5F161001A2838BF203DFD
:1009C0007554491CBD5C521C202D1ADD2F2D18BFFB
:1009D0005C2D11D02E2D09D0994215D2802DA4BFA7
:1009E0000EEB050010F8805CE146DDE70B2B0BD029
:1009F00008210B23E6E7521CB85C2F2818BF5C289F
:100A0000F9D0002917449CD106222BE0C87A236A2A
:100A100000F03F00A071D87A01070DD4B4460B2135
:100A200013F801EB1CF8010B491EAEEB000001D0DE
:100A30000028F5D0002895D000212046FFF78FFE32
:100A400002008FD1E169FFF75EFF02008AD1216ABF
:100A500008780028DAD1042284E7042A02D140076A
:100A600000D405221046BDE8F2830000222A2B2C78
:100A70003A3B3C3D3E3F5B5D7C7F000003464FF0D0
:100A8000FF301A68002A00D1704710B5144600E004
:100A9000641C2178212901D33A29F9D13A290CD1B2
:100AA00012F8011B30390A2908D2A24208BF0029D6
:100AB00004D1611C0020196010BD002010BD10B5CC
:100AC000044600224FF0FF33E270E362FFF736FC8A
:100AD00008B1042010BD04F22E20FFF755FB4AF6A2
:100AE0005521884201D0032010BD04F13000017867
:100AF000E92904D0EB2904BF8078902813D104F1B0
:100B00006600FFF744FB20F07F40DFF800158842C5
:100B100007D004F18200FFF73AFBDFF8F4148842B3
:100B200001D1002010BD022010BD0000581000208F
:100B30002DE9FF410E46002131601446FFF79EFF6C
:100B4000070048BF0B2007D4DFF8C88408F1040071
:100B500050F827500DB90C200BE1356004F0FE046D
:100B6000287848B1687800F011FDC10704D4002C42
:100B700001D040070DD4FBE0002028706F7068782A
:100B800000F00DFDC10748BF032003D41CB140078E
:100B900001D50A20EDE000212846FFF790FF00264E
:100BA00002281ED1002405EB041101F5F771087924
:100BB00018B101F10800FFF7EAFA4DF82400641CAF
:100BC000042CF0D35DF8264024B121462846FFF7D7
:100BD00076FF00E00320022802DB761C042EF1D30E
:100BE0002646042808BF0120D4D0022880F2818044
:100BF00005F13B00FFF7C8FAB0F5007F79D105F1A8
:100C00004600FFF7C1FA040004D105F15400FFF7D4
:100C1000BEFA044605F13D00AC61C178A970012916
:100C200018BF022965D14C4300786881010060D06B
:100C3000421E10425DD105F14100FFF7A5FA10F008
:100C40000F0F288155D105F14300FFF79DFA0700EA
:100C500004D105F15000FFF79AFA074605F13E006E
:100C6000FFF792FA002844D02989231803EB1113C7
:100C70009F423ED36A89FF1AB7FBF2F2002A38D0AE
:100C800003274FF6F67C624538BF022740F6F67C14
:100C9000624538BF0127921C6A61EE6180199B1979
:100CA000032F2862AB6210D105F15A00FFF76CFAEE
:100CB000002804BF288900281BD105F15C00FFF73C
:100CC00066FA0446686980000CE091B1286A24182D
:100CD0006869022F0FBF400000EB400100F00100E7
:100CE00000EB5100A9696C6200F2FF10B1EB502FCC
:100CF00001D20D203DE04FF0FF302861E8608020F8
:100D0000032F28712AD105F16000FFF73DFA012871
:100D100024D1711CFFF7F7FD00BB287105F22E20CE
:100D2000FFF732FA4AF65521884217D105F1300013
:100D3000FFF72DFA3449884210D105F50570FFF709
:100D400026FA3249884209D105F50670FFF71FFAE5
:100D5000286105F50770FFF71AFAE8602F70B8F8F8
:100D60000000401CA8F80000E8802846FFF7B5FA0C
:100D7000002004B0BDE8F08170B5044609260D4698
:100D8000002C1CBF216800290DD0087858B1A0881C
:100D9000CA88904207D1487800F0F8FBC00702D417
:100DA0002068002600E000202860304670BD73B542
:100DB00082B0154600916846FFF760FE002848BFE4
:100DC0000B201ED4934901EB8006746824B12046A1
:100DD000FFF783FA00212170029810B90021716099
:100DE00008E0029900200870029A7260029808B127
:100DF000012D01D0002004E0002202A903A8FFF782
:100E000097FE04B070BD00005252614172724161A0
:100E10002DE9F24104008DB008BF092000F0F080F8
:100E200002F03F073A4669460DA8FFF781FE06002B
:100E300065D100980D99019001A8FFF766FD0600A5
:100E40000DD19DF83300010648BF062607D417F0E0
:100E5000FE0118BF012101A8FFF7BDF9064617F0F2
:100E60001C0F00F0A980300000F09C80042E46D1B9
:100E70006949086800281EBF08690028122603D1A6
:100E800001A8FFF705FD0646300047F0080735D1F9
:100E9000380739D500F0C6FB0546099829460E30BB
:100EA000FFF784F9099829461630FFF77FF9099969
:100EB0002020C872DDF8248000984146FFF7C2FC6C
:100EC0000546009800224146FFF7CFFC0998002113
:100ED0001C30FFF76BF900990120C87085B10098AC
:100EE000D0F82C8000F0D8FA060007D100984146CF
:100EF000FFF724FA064600986D1EC56030007CD1CD
:100F0000380748BF47F040070098C16A616217F090
:100F1000FE010998A06218BF012101A8FFF788F916
:100F2000002820613CD0099D00982946FFF78AFCE3
:100F3000A06005F11C00FFF72AF9E0604FF4007291
:100F40000020E062009921600098C188A180002003
:100F500060750021A0612162277504F13000FFF760
:100F600035F9B8064BD5E568002D48D0A561009845
:100F70004789A1687F02AF420CD22046FFF742FAB0
:100F80000146022926D311F1010F26D0ED1B3000B6
:100F9000F1D020E0E805E16131D000F0A7F908BB0D
:100FA00002262AE09DF80A0010F0110F10D17807F0
:100FB0007FF56EAF082620E030009FD19DF80A0033
:100FC000C10648BF042618D4B90799D5C00797D5DC
:100FD000072612E00226E1610FE04FF0FF30012604
:100FE000E0610AE000EB552020620246009840785C
:100FF000012300F0DEF910B1012600202060304608
:101000000EB0BDE8F0810000D890000846415400C1
:1010100046415433FC100020581000202DE9FC47B5
:101020001546994600228A46C9F8002006466946B8
:10103000FFF7A2FE01005ED1707D01005BD1307D23
:10104000C10758BF072056D5F068B469041BAC42ED
:101050002FD92C462DE0670A05EB00084CD00098EC
:1010600040897919884238BF471B009840783B4631
:101070004246514600F0A6FA00286BD1307D0106A9
:101080000CD5306AA0EB0803BB4207D24FF40072C4
:1010900006F130010AEB4320FFF790F87F02B069B8
:1010A0003818B061BA44D9F800107918C9F800109E
:1010B000E41B002C52D0B169C8053AD100F00FF9F9
:1010C00012D109B9B06809E0F06A18B13046FFF7EB
:1010D000EEFA03E0F1693046FFF794F9022808D3ED
:1010E00010F1010F36D0F061F16900F0FFF8010056
:1010F000B1D10220707532E0326A424517D0307D9E
:1011000001060BD500984078012306F1300100F06C
:101110005FFAF8B9307D00F07F0030750123009848
:101120004078424606F1300100F04CFA90B9C6F81A
:101130002080B169C1F30801C1F5007027468442DF
:1011400088BF074606F1300001443A465046FFF793
:1011500035F8A4E701217175012000E00020BDE809
:10116000F6872DE9FC471446984600228946C8F8C0
:10117000002007466946FFF7FFFD010001D1787D99
:10118000010040F0AA80387D810758BF072040F158
:10119000A480B8692118814238D24FF0FF32141A66
:1011A00034E0660A05EB000A68D00098408971199E
:1011B000884238BF461B009840783346524649461D
:1011C00000F006FA002840F08080386AA0EB0A00A0
:1011D000B0420BD209EB40214FF4007207F130000E
:1011E000FEF7ECFF387D00F07F0038757602B144E1
:1011F000B869F9683018B861884238BF0846F860A5
:10120000A41BD8F800003018C8F80000002C5FD0EC
:10121000B969C80544D100F062F818D111B9B868AD
:1012200050B906E0F86A18B13846FFF740FA03E013
:10123000F9693846FFF7E7F9002849D001281BD0A3
:1012400010F1010F41D0B968F86101B9B860387D7B
:1012500001060CD500983A6A4078012307F1300165
:1012600000F0B6F988BB387D00F07F003875F96969
:1012700000F03CF8002894D1022027E0386A50455D
:101280000CD0B969F868814208D2009840780123EF
:10129000524607F1300100F095F9B0B9C7F820A027
:1012A000BB69C3F30803C3F500702646844288BFB8
:1012B000064607F13000324649461844FEF77EFFE5
:1012C000387D40F08000387591E70120787504E0A2
:1012D000387D40F0400038750020BDE8F687009862
:1012E00045896D1E15EA5125704701460098FFF7A4
:1012F0007CB87CB500F061F8010037D1217D4A0649
:1013000034D5080606D500F032F808B1012076BDC4
:1013100000F049F800F086F90546616A0098FFF789
:101320000DF8010022D1A66AF07A40F02000F07298
:101330003146A2682068FFF798FAE16806F11C00C0
:10134000FEF734FF294606F11600FEF72FFF0021B5
:1013500006F11200FEF726FF00990120C8700098E0
:10136000FFF703F8217D01F0BF01217576BD0098DC
:10137000226A4078012304F1300100F029B91CB53C
:101380000446FFF7B6FF01000CD169462046FFF77F
:10139000F3FC010006D12069FEF784FF010004BFC1
:1013A0000021216016BD207D00F07F002075704770
:1013B0002A4604F1300100F005B904466946FFF7FA
:1013C000DBBC2DE9F14F86B00F461446002269467A
:1013D00006A8FFF7ADFB0028814659D10098206090
:1013E00000994C690869A21E824228BF38604FD21A
:1013F000084600260178012918D1022401902146CF
:1014000001A8FEF7FFFF10F1010F09D001280AD053
:1014100000B9761C00984169641C8C42EFD32FE020
:101420004FF001092CE04FF0020929E0D0F82080AC
:101430000AE0FEF7ACFE000108BF5E460AF1040AAE
:101440002D1F641E1CD065B900984146FEF776FF3B
:10145000814608F1010898B9009800F1300A4FF46C
:10146000007500980178022906F1010B5046E0D181
:10147000FEF78AFE00B95E460AF1020AAD1EE0E7F9
:101480003E60009806610099087940F001000871FB
:10149000484607B0BDE8F08F0022294601A8FFF7B3
:1014A0007DB82DE9FC4105460F46904600242E46A6
:1014B000781E844211DA01AB012269464046FFF7EB
:1014C000ADFD0198012808D19DF800000D28F2D04B
:1014D000641C0A2806F8010BEAD10020307004B918
:1014E00000252846BDE8F6817CB50D4604460A2D48
:1014F00004BF0D21FFF7F8FF6668002E16D404F133
:101500000C008555761C3D2E0CDB20686B46324660
:1015100004F10C01FFF725FE0098B0420CBF002635
:101520004FF0FF36A0686660401CA06073BD1CB51C
:1015300004466268002A0DD420686B4604F10C0151
:10154000FFF70FFE002802BF60680099884201D1B2
:10155000A06816BD4FF0FF3016BD0160002141604C
:101560008160704718B593B004466846FFF7F5FFF1
:1015700004E014F8011B6846FFF7B6FF2078002846
:10158000F7D16846FFF7D3FF14B010BD01461E4ADD
:10159000531802EB81014A68187A516808471A4BC0
:1015A00002460020995C002900D0704710B5012444
:1015B0009C5403EB82019C184A68207A1368BDE8AA
:1015C0001040184770B500F009F8AC68A04770BD2E
:1015D00070B500F003F8EC68A04770BD04460A4DF2
:1015E0002E1905EB84046568307A704738B50346D8
:1015F000054CE51804EB83035C68287A236901B085
:10160000BDE8304018470000AC10002010B5034C76
:101610000348211D00F024F8207010BDF4100020B4
:10162000B89600080020704770B50E4D6B7A0446DE
:101630000120A3B96B7A0020E854687A05EB800694
:101640007460687A28440272687A421C6A72303088
:1016500008702F223A2048708A700020C87070BD30
:101660000022E1E7AC1000202DE9F14FB2B099461D
:10167000924600230691CDE900333C9A0F930DF179
:101680004A0114914A7011E0329E57462C4617F8D1
:10169000011B0698B0470028069000F026810F989D
:1016A000401C641E0F90F2D13296AA449AF80000B2
:1016B000252808D10021002209910A920B910C9251
:1016C0000D910E920FE06A464FF0FF31504601F047
:1016D00095F8050002D10F9800F066BED4D501251B
:1016E000E3E741F001011AF8010F2028F9D023287F
:1016F0000CD02B2804D02D2805D0302809D00BE0A1
:1017000041F00201EFE741F00401ECE741F008018C
:10171000E9E741F01001E6E72A280FD1D9F80020C7
:1017200052F8040BC9F800200028119003D540425C
:10173000119041F004010AF1010A14E01192DFF85E
:10174000EC3B0AE01198984205DA00EB800402EBCA
:101750004402303A11920AF1010A9AF80020A2F1EB
:1017600030000A28EED39AF800002E2803D04FF05C
:10177000FF32109229E01AF8010F2A2809D1D9F86E
:10178000000050F8042BC9F8000010920AF1010A79
:101790001BE02D280CBF0AF1010A00200022109244
:1017A000DFF8882B0BE040B9109B934205DA03EB7E
:1017B000830504EB4504303C10940AF1010A9AF8C1
:1017C0000040A4F130030A2BEDD3ADF848100FF61A
:1017D00060309AF8001001F01BF808B11AF8010BFC
:1017E0008DF84A009DF84A00682805D19AF8000053
:1017F00068280CD1622106E06C2804BF9AF800002A
:101800006C2804D171218DF84A100AF1010A1FA831
:1018100008901AF801BBBBF125012DD01C3900F04E
:101820006181091F022940F25D810E392AD0491FCA
:1018300000F0B384093900F05581891E00F0498514
:10184000491E00F0F584491E022940F24B81091F10
:1018500000F0EE84491F00F0BA80491E00F09D841C
:10186000491E65D0C91E21D0891E00F09684C91E6C
:1018700000F0938400F04CBD25238DF87C300121CD
:1018800009912AE06C208DF84A00D9F8000050F840
:10189000042BC9F80000002A43D114994878002885
:1018A0003DD04FF0FF340FF6902012E09DF84A0033
:1018B0006C28EAD0D9F8000050F8044BC9F80000B1
:1018C0000794D4B91499487898B14FF0FF340FF6C3
:1018D000842000F0B7FF201A07D132981FAA04A96C
:1018E00000F065FD00287FF5E1AE4FF0FF3000F01D
:1018F0005BBD0FF67C200790EFE7109D002D04D50F
:10190000204600F0BFFF044607E02A46204600F0CC
:10191000C3FF002814BF041B2C460A94DDE70FF612
:101920005422329804A900F0C8FD0028D5D5DCE780
:10193000D9F8001051F8040BC9F8001020F0000489
:10194000002121F0FF351FABCDE904450793DDE908
:10195000042308993C2413B90AB9109898B102F0ED
:101960000F053035641EEEB23A2EA8BF2735120996
:1019700042EA03721B090D5508BF002A03D00798DD
:101980000D19A842EBD308190790C4F13C02109836
:101990000A92824209DABDF84810821A4FF6EF70B7
:1019A00001400C92ADF8481097E7002895D59DF8B6
:1019B000480000F0140010288FD1119B09990C9851
:1019C0005B1A1B1A9A1A002A87DD0C9285E7149974
:1019D000487820B14FF0FF340FF69C1079E79DF85E
:1019E0004A00622862D0682819D06A2840D06C2842
:1019F00006D071284DD074282DD07A281ED064E0EE
:101A0000D9F8001051F8040BC9F8001020B94FF0B4
:101A1000FF340FF67C105CE70F9901605DE7D9F8A1
:101A2000001051F8040BC9F8001020B94FF0FF3432
:101A30000FF65C104DE70F9901804EE7D9F80010C2
:101A400051F8040BC9F800100028E5D14FF0FF341D
:101A50000FF63C103DE7D9F8001051F8040BC9F817
:101A600000100028D8D14FF0FF340FF6241030E7D3
:101A7000D9F8001051F8040BC9F8001020B94FF044
:101A8000FF340FF60C1024E70F9AD317C0E9002398
:101A900023E7D9F8001051F8040BC9F8001000280A
:101AA000F2D14FF0FF340FF6E80012E7D9F800103A
:101AB00051F8040BC9F8001020B94FF0FF340FF6AD
:101AC000D00006E70F99017007E7D9F8001051F828
:101AD000040BC9F8001000289ED14FF0FF340FF618
:101AE000B000F6E6D9F80020D21D22F00702C9F8AE
:101AF0000020D2E900010832C9F80020CDE9040134
:101B0000C80F02D009982D210AE0BDF848008107CE
:101B100002D509982B2103E0C00705D5099820219B
:101B20001FAA1154401C0990DDE9042309991FA83C
:101B3000CDE92E2308444BF020016129079015AC14
:101B40000BD01099002902D50621109105E001BFA4
:101B50004BF02001672901221092DDE9042359008E
:101B60004915491C10D11A030ED0ABF161050321B0
:101B70001A2D0A9102D20FF6A43101E00FF6A0311E
:101B8000032200F0B5FEA8E659004915491C0AD108
:101B90001A0308D1ABF1610503211A2D0A9116D35E
:101BA0000FF68431ECE7DDE90401CDE93001DDE930
:101BB000302323F00047B7F5801F22F000060DD236
:101BC0000022002F08BF002E029203D116E00FF66C
:101BD0005431D5E702AA00F097FE0FE0DFF8EC0AD7
:101BE000DFF8EC1A00EB17500290DDE930234FF0DC
:101BF000FF301940DFF8DC7A10403943CDE90401A9
:101C00004BF0200061280DD1079830210170821C13
:101C1000BBF1610F07920CBF7821582141700998E0
:101C2000801C0990DDE9040120F0000231F000433E
:101C300008BF002A02D10026002571E14BF02008E0
:101C4000B8F1610F40F0BE801098002847BF2121F5
:101C50000391401C0390039FDDE92E017F1C0022AD
:101C60000023DDE9044500F087FE02998DF8542039
:101C700038BF85F00045091F002F02910DF1550670
:101C80005DDDDFF8541ACDE9302140F2FF732E9369
:101C9000204629460022002300F08AFE4FD2480049
:101CA000400D00F11C0215D0002A13DD2E9B9A4234
:101CB0000ADBDDE9300121F0004205F0004002437B
:101CC000DDE93001114611E06FF31E5141EA025186
:101CD00020460BE024F0000035F0004108BF00284A
:101CE0000FBF29461C22294600F07AFE04460D4605
:101CF00000F014FFFF1F002F804609DD00F02CFFCD
:101D000002460B462046294600F038FF04460D46A1
:101D1000F01D0721B8F1000F0CDD491E5EBF08F071
:101D20000F0200F8012D4FEA2818F3D502E0002237
:101D300000F8012D491EFAD5C61D002FA8DC0DF1B3
:101D40005500361A03988642D8BF304600280DF158
:101D5000550430D4B04206DA0DF155010A5C082A68
:101D6000A8BF0F2100DA0021024615AB134400E0A2
:101D7000401E13F80159521E8D42F9D00F2904D18B
:101D80000DF155018B5C5B1C8B54002A04D5029924
:101D9000091D15AC401C0291411E0CD46218ABF118
:101DA0003A0613783033DDB23A2DA8BFF318491E36
:101DB00002F80139F5D51099002940F1AF80421E93
:101DC0001092ABE00299DFF8142947F29750414393
:101DD00091FBF2F2DDE92E45029225F00045D2F1A9
:101DE000070204DD2046294600F04CFC0BE052427D
:101DF0000020DFF8EC1800F045FC02460B462046B8
:101E0000294600F02DFF0446B8F1660F109806BF72
:101E1000029F0A3706273F18142FC8BF1427302007
:101E20008DF854000D460020DFF8B818CDE92E01DA
:101E30000DF15506002F33DD2046294601F034F818
:101E400001460A4606F1080304200A26B2FBF6F60C
:101E500006EB860EA2EB4E02303203F8012C0A226A
:101E6000B6FBF2F202EB820EA6EB4E063036401EB7
:101E700003F8026DE9D1083F002F03F10806D9DD10
:101E8000084601F025F802460B462046294600F098
:101E900075FEDDE92E2301F029F804460D46CBE757
:101EA0000DF15500361A0DF1550404E00298401E5C
:101EB000761E0290641C20783028F7D0B8F1660FA7
:101EC00002D10299491C04E0B8F1650F0CBF012151
:101ED0000021109808188642B8BF701E00281DD433
:101EE000B04204DA215C3429C8BF392100DC30213A
:101EF0000246631E9D1800E0401E15F80169521E3F
:101F00008E42F9D0392902D1A15C491CA154002A82
:101F100004D50299491C1C46401C02910646029DAC
:101F200000F070FC406A0778DDF8408030B200288D
:101F300002DC01260FF2F4744BF02000662808BF83
:101F40006D1C16D0672846D128B210F1040F48DB6B
:101F5000404546DA9DF848006D1C010703D430B2B5
:101F60004045B8BF804628B2B8EB000848BF4FF0E4
:101F700000080FFA85FB07980A99BBF1000F00F3E0
:101F8000B2804A1C0A9230234354B8F1000F03DC9C
:101F90009DF84800010704D50A98411C0A91079949
:101FA0000F5418EB0B0FB8BFC8F100052DB26842F3
:101FB0000D90A84432B29045B8BF4646079B0A9898
:101FC00036B20B9632462146184400F091FCA8EB3D
:101FD00006000E90CBE0BBF1610F17D14FF0700BF4
:101FE00019E030B2404504DA9DF848100A0758BF9E
:101FF0008046B8F1010848BF4FF00008BBF1670FF9
:1020000014BF4FF0450B4FF0650B04E0BBF1410FDF
:1020100008BF4FF0500B0A98411C0A91B8F1000F0D
:10202000079914F8012B0A5403DC9DF848000107B6
:102030001AD50A98411C0A91B8F1000F07990F545C
:1020400012DD761E30B2804507980A9BB8BF46461F
:1020500032B22146184400F04BFC0A9936B271188E
:102060000A91A8EB06000D9007980A9908442AB235
:10207000002A80F800B003D42B224270811C04E0B7
:102080002D2141701546811C6D4200202EAA0A2484
:1020900009E02B4693FBF4F505EB8506A3EB46031D
:1020A00002F8013B401C2DB2002DF2DC012806DCB9
:1020B0004BF02002652A04BF302201F8012B0028D2
:1020C0002EAA08D1302001F8010B06E0401E135C57
:1020D000303301F8013B0028F8DC079A0A981044D5
:1020E000091A0B9143E0084431B22AB2914219DA3D
:1020F00032B2214600F0FCFB0A9936B27118ABEB04
:102100000606B8F1000F0A910D9603DC9DF8480011
:10211000020704D5079847540B99491C0B91CDF839
:10212000388024E0214600F0E3FB0A98761B5844EF
:10213000B8F1000F0A9003DC9DF848100A0703D598
:10214000411C0A9107990F5430B2804507980A9BA9
:10215000B8BF464632B204EB0B01184400F0C8FB8E
:102160000A9836B230180A90A8EB06000D909DF838
:10217000480000F0140010287FF4AFAB099A0A99C8
:102180000D988A180B9982180E988A18821811983F
:102190008242BFF6A2AB821A17E49DF84A00622879
:1021A00008D068280ED06A2814D06C281FD0712857
:1021B00010D01CE0D9F8001051F8040BC9F8001039
:1021C000C0B21AE0D9F8001051F8040BC9F8001099
:1021D00080B212E0D9F80020D21D22F00702C9F81F
:1021E0000020D2E900010832C9F8002006E0D9F841
:1021F000001051F8040BC9F800100021CDE90401CA
:102200009DF8480001075AD5DDE90423002B08BFDB
:10221000002A54D04BF02000782850D109981FA9EB
:1022200030220A54401C431C099301F800B046E0D8
:102230009DF84A00622808D068280ED06A2814D079
:102240006C281FD0712810D01CE0D9F8001051F86C
:10225000040BC9F8001040B21AE0D9F8001051F888
:10226000040BC9F8001000B212E0D9F80020D21D0A
:1022700022F00702C9F80020D2E900010832C9F8AB
:10228000002006E0D9F8001051F8040BC9F800103E
:10229000C117CDE90401002902D509982D210AE0D2
:1022A000BDF84800810702D509982B2103E0C0073B
:1022B00005D5099820211FAA1154401C09901FA878
:1022C00009990144079104A8594600F056F9FFF70F
:1022D00004BB9DF84A006C280BD001210991D9F864
:1022E000000050F8041BC9F800008DF87C10FFF7BF
:1022F000F4BAD9F8000050F8041BC9F80000159191
:102300004FF0FF3210920021169115AAFFF709BB7A
:1023100025210122BBF1000F8DF87C1009923FF4BA
:10232000DCAA8DF87DB00221FFF7AABACBCCCC0C89
:10233000686A6C747A4C00007072696E74665F73C0
:102340003A2062616420256C7320617267756D6547
:102350006E7400007072696E74665F733A20626119
:102360006420257320617267756D656E74000000CE
:1023700000000000000000007072696E74665F73F8
:102380003A20256E20646973616C6C6F7765640018
:102390007072696E74663A2062616420256E2061F5
:1023A0007267756D656E740033B0BDE8F08F2DE90E
:1023B000FC410F46064690467A6B7869396ABC6ADA
:1023C000121AB869521A796A121AF869521A121A4C
:1023D00097F83800141B41070FD42020002C8DF8EB
:1023E00000000ADD254601236A463946304600F0E2
:1023F0007DF900285DD16D1EF5D17B6942463946D5
:10240000304600F073F9002853D130208DF80000D9
:102410003D6A002D09DD01236A463946304600F049
:1024200065F9002845D16D1EF5D1BB69FA683946BA
:10243000304600F05BF900283BD130208DF80000D9
:102440007D6A002D08DD01236A463946304600F0DA
:102450004DF970BB6D1EF6D1F868B969FB69421879
:102460003946304600F042F918BB30208DF80000A4
:10247000BD6A002D08DD01236A463946304600F06A
:1024800035F9B0B96D1EF6D197F8380041070DD572
:102490002020002C8DF8000008DD01236A46394613
:1024A000304600F023F920B9641EF6D10020BDE8C3
:1024B000F6814FF0FF30BDE8F6812DE9F8470D4673
:1024C000A3B02F6B002F8246904648BF6FF00047A5
:1024D00000F0DDFD696B401801AA0021C2E900117E
:1024E000812828BF4FF0FF3044D289461EE0A74222
:1024F00030DB6869201881280BD30021696303AAA7
:1025000029465046FFF753FF5FEA000922D4002016
:10251000686103AB6E6922466946981900F0E8F9D4
:10252000A6196E6158F8040BA0B13F1B002F11DDF6
:10253000D8F8001001AA684600F062F90446002CA1
:1025400005D4D8F800000028D1D1641ECFD54FF0B3
:10255000FF390EE0B9F1000F504604D103AA294615
:10256000FFF725FF8146B9F1000F02D10020686115
:102570006863484624B0BDE8F0872DE9FC43074670
:102580006F293E6908BF082405D041F02000782853
:1025900014BF0A2410243C25D7E90023642918BF5E
:1025A00069299046994605D1002B03D5D8F100083A
:1025B00069EB4909B9F1000F08BFB8F1000F0CD160
:1025C000386B50B9082C39D197F83800010735D548
:1025D00030203B2586F83B0030E08DF80010404667
:1025E00049462246E31700F057FD3032D0B26D1E47
:1025F0003A28019504DB9DF80000A0F151018A18EA
:102600007255404649462246E31700F045FD804694
:102610005FEA010908BFB8F1000F03D0F86871192B
:102620008842DCD3082C09D197F83800010705D57A
:10263000705D302802D06D1E30207055C5F13C020F
:10264000BA617119F960386B824208DA821A3A620B
:102650004FF6EF70398F01403987BDE8F3830028CA
:102660000ED597F8380000F01400102808D17B6BC5
:102670007969386A5B1A1B1A9A1A002AC8BF3A622B
:10268000BDE8F3832DE9D04306460F4614464FF0CC
:102690000008DFF8549012E0E00707D542464B46A9
:1026A0003046394600F022FC06460F464046494671
:1026B00042464B4600F01AFC641080468946002CC6
:1026C000EAD130463946BDE8D083000002FCFFFF66
:1026D000FFFF0F800000E03F0000F07FA0860100B8
:1026E0000000F03F84D7974100002440F8B505462C
:1026F0000E4617461C4600205CB117F8011BB06857
:10270000A847B06030B1F06A401CF0620020641E3F
:10271000F3D1F2BD4FF0FF30F2BD00006E616E00EC
:102720004E414E00696E6600494E4600300030B49E
:10273000002513E050F8042BD30744BFA9F101038F
:102740009A18091F042942F8045BFAD213468C0731
:1027500044BF15809B1CC90748BF1D7050F8041B5F
:102760000029E7D130BC7047FFE741381A28804183
:10277000C00F7047A0F10901052901D3202801D11C
:102780000120704700207047A0F141011A2938BF8D
:10279000203070471C48704770B45368D41801E06B
:1027A0005B1C491E042B08DA00291FBF057804F8BA
:1027B000015B10F8016B002EF2D1536070BC7047C2
:1027C00038B514461D4661B1FFF7E6FF61686A6BD4
:1027D000204690476FF00102811A02D0491E01D0B5
:1027E00001E003E005E00021616032BD6FF001000F
:1027F00032BD4FF0FF3032BDDA6B1047024BDFE7DE
:10280000014BF9E701487047480000201000002004
:10281000C9B202788A421AB11CBF10F8012FF9E739
:1028200018BF00207047B1F5807F02D34FF0FF3012
:1028300070470170012070470078401E8041C043FE
:10284000C00F704780B500B906A005490B681BB1E1
:1028500022220021984701E000F0A1FC222002BDC5
:1028600018110020636F6E73747261696E74206852
:10287000616E646C65723A20626164206D65737389
:102880006167650000F1010310F8011B11B110F838
:10289000011BFBE7C01A7047C9B2830706D0521E5E
:1028A00022D310F8013B9942F7D11FE0083A13D325
:1028B00002F1040241EA012141EA014150F8043BDE
:1028C000121F21BF4B40A3F1013C2CEA030C1CF06A
:1028D000803FF3D0C9B2001F083210F8013B521EEE
:1028E00028BF91EA030FF8D818BF0120401E704797
:1028F0004AB1000011F8013B521E00F8013B1CBF19
:1029000011F8013BF8E7704710B5144600F002F8E3
:10291000226010BDC1F30A5343B14A0012F5001FF3
:1029200028D2A3F2FE32A1EB0251704750EA410CCB
:1029300020D001F0004C31EA0C01B1FA81F204BF61
:10294000B0FA80F3D2180B3AB2F120032CBF00FA90
:1029500003F1914041EA0C013EBFC2F1200C20FA84
:102960000CF319439040524240F2FD33D21A01EB6E
:1029700003517047002270474FF4001C1CEB410FBD
:1029800094BF1CEB430F09E041EA030C50EA4C0CE6
:1029900052EA0C0C03D2994208BF9042704714BF10
:1029A0008B42824270470268531C0360117070476B
:1029B0004FF4001C1CEB410F94BF1CEB430F09E0CC
:1029C00041EA030C50EA4C0C52EA0C0C03D28B4245
:1029D00008BF8242704714BF9942904270472E0050
:1029E000124254D440F2FF7C1CEA11530FD06345CD
:1029F00031D09B1863453CBF01EB0251704701F099
:102A0000004141EA0C510020AFF30080704750EACA
:102A1000410320D001F0004C91EA0C011CD0B1FA26
:102A200081F30B3B9A420DD9D21A994051EA0C011D
:102A3000C3F1200C20FA0CFC61449840531C40F276
:102A4000FF7CD7E7914041EA0C01C2F1200C20FA4B
:102A50000CF3194390407047B0FA80F31533202BE4
:102A6000E0D3202AEED3203A203B9A4209D9D21A49
:102A700000FA03F141EA0C010020531C40F2FF7CF4
:102A8000B8E700FA02F141EA0C0100207047524217
:102A900040F2FF7C1CEA11530DD06345DBD0B2EB52
:102AA000030C3CBFA1EB025170470CF1010221EA7B
:102AB000035141F4801150EA410CCCD001F0004C9C
:102AC000352A27DC30B481EA0C01B2F1200309DA9F
:102AD000C2F12003044601FA03F5D0402843D14057
:102AE0009C400CE0C3F12002450020FA03F418BF1B
:102AF00044F0010421FA03F091400C43002174F1E9
:102B0000004550F1000051EB0C01244230BC7FF431
:102B10007BAF70476146002076E74300C1F30A535C
:102B200040F2FE329B1A14DDD3F120034FEAE1722A
:102B300008DDC90241EA505141F00040D8408018F8
:102B40005040704703F2E13010B1D24382F00040B0
:102B50007047002070470000C11768B14840401A14
:102B6000B0FA80F29040D21CC907C2F5846241EAF3
:102B7000025202EBD02140057047000070B44FF0C4
:102B8000004591EA030F40F115836B40841A71EB05
:102B9000030603D2001BB141121973414FF4001C0C
:102BA0001CEB410F34BF7CEB430442E00C0DA4EB63
:102BB0001356352E4FDC45EAC323DB0A45EAC12113
:102BC000C912B6F120050DDD63FA05F6EB4086EA81
:102BD0000305124218BF45F00105C01851F100016C
:102BE0000CD213E062FA06F5F2405540F3415A4028
:102BF000B340F3405A408018594107D349085FEA6F
:102C000030005FEA350528BF45F0010501F5801168
:102C1000420875F1004250F1000041EB04514E00B2
:102C200016F5001F70BC38BF70470020090D09055C
:102C300070471CEB410F10D252EA43060BD0BCEB9D
:102C4000410F05D80C0DAB43661E342EB6DD02E0F5
:102C5000AB438018594170BC704770BC704700008E
:102C6000F0B540F2FF7581EA030C0CF0004C15EA58
:102C700011541DBF15EA1357AC42AF42E5E0BC4109
:102C8000C1F31301C3F31303801A994143F4801372
:102C900004D2641E4000494180185941C90241EAEA
:102CA0005051B1FBF3F603FB1611A2FB0675D7EBEF
:102CB000C020A94102D2761E80185941C90241EABA
:102CC0005051B1FBF3FE03FB1E11A2FB0E75D7EBB7
:102CD000C020A94103D2AEF1010E801859418902EA
:102CE00041EA9051760546EA8E2EB1FBF3F603FBDE
:102CF0001611A2FB0675D7EB8020A94102D2761EE1
:102D000080185941C90241EA50514EEA060EB1FB02
:102D1000F3F603FB1611A2FB0675D7EBC020A94101
:102D200002D2761E80185941C90241EA5051B1FBC6
:102D3000F3F703FB1711A2FB0735D3EBC020A94122
:102D400067F100070CBF004247F0010766F3D52783
:102D50004FEA1E31B80814F5806412DDBD0775F125
:102D6000004250EB0E5051EB045111F5801F5CBF37
:102D700041EA0C01F0BD4CF07F6141F0E0410020E0
:102D8000F0BDBD076D0840EA0E5041F48011D4F14A
:102D90000104B4F120060ADAC4F120060200E04082
:102DA00001FA06F3E1401843B24015430EE0342C1B
:102DB00013DCC6F1200445EA40056D0820FA06F24E
:102DC000154321FA06F0A1400D43002175F10042A0
:102DD00050F1000051EB0C01F0BD00205FEA0C0146
:102DE000F0BDCFB992185B41B3FA83F704BFB2FAD2
:102DF00082F6BF190B3FB7F120062FBF02FA06F388
:102E0000BB40C7F1200622FA06F638BF3343BA406A
:102E10001CB1E419641E33E77F4231F00041B1FA7E
:102E200081F404BFB0FA80F6A4190B3CB4F120067B
:102E30002FBF00FA06F1A140C4F1200620FA06F6E1
:102E400038BF3143A0403C1B1AE7AC421ABF05EA29
:102E50001357AF4212E050EA41061CBF52EA430644
:102E6000BFE750EA4107304661461CBF41EA0551C1
:102E7000F0BD52EA430C08BFC143F0BD00204FF43F
:102E8000001616EB410F98BF16EB430F08BF16EB69
:102E9000410F24BFC14305E016EB430F0CBF614651
:102EA0004CEA0551F0BD0000400D491840EA812070
:102EB0000CD2490DA1F58061491C40F0004005DBB2
:102EC000D1F11F0154BFC840C017704700207047A0
:102ED000014648B1B0FA80F18840C91CC1F584614F
:102EE000090501EBD021400570470000B0B581EA2B
:102EF000030C0CF0004C40F2FF7515EA11541DBF95
:102F000015EA1357AC42AF4239E0E41923EA4553BE
:102F100043F48013C90241F0004141EA505EC70208
:102F20001100A7FB020200284FF00000EEFB012079
:102F30004FF00001E3FB072118BF42F001024018E7
:102F400000214941E3FB0E01A4F580640F0302D286
:102F500052004041494154F101046CDD470872F1CF
:102F6000004250F1000051EB0451A1F580115CBF0B
:102F700041EA0C01B0BD4CEA05510020B0BD05EAA4
:102F80001357AC4214BFAF4241E050EA410E1CBFA0
:102F900052EA430E02E061460020B0BD24423C44A8
:102FA0001BD15FEA070EF6D0090302BF01460020DD
:102FB000AEF1140EB1FA81F7AEEB070401FA07FE89
:102FC0000C37C7F1200100FA07F7C8404EEA000E9F
:102FD00023EA455343F48013A2E733F00043B3FAE6
:102FE00083F704BFB2FA82FE77440B3FE41BB7F1CC
:102FF000200E2FBF02FA0EF3BB40C7F1200E22FABB
:103000000EFE38BF43EA0E03BA40641C82E750EA62
:10301000410E14BF52EA430E6FF000014FF4001747
:1030200017EB430F8ABF194617EB410FB5E74CEA80
:1030300005510020B0BDD4F10104B4F120070FDA2E
:10304000C4F12007520828BF42F0010210FA07F528
:1030500001FA07F7E1BF2A43E0403843E1400FE0BF
:10306000352C98DCC7F1200452EA400220FA07F21E
:1030700018BF42F0010231FA07F0A1400A430021D3
:1030800072F1004250F1000051EB0C01B0BD80B56F
:10309000FFF780FB006C02BDD3BBD9B1B2F5803F16
:1030A0005BD2022A1ED98C46B1FBF2F102FB11C39E
:1030B0001B0443EA1043B3FBF2FC02FB1C3380B257
:1030C00040EA0343B3FBF2F002FB103240EA0C404B
:1030D00000237047022A05D98446B0FBF2F002FBB8
:1030E00010C270474AB105D100F0010249085FEAF9
:1030F0003000704700220023704700F011B90B0028
:103100000200002100207047F7D3002200237047FF
:10311000904271EB030CF2D370B5B1FA81F4B3FABB
:1031200083F52C1BA340C4F1200532FA05F6334386
:10313000A2405FF00046E64002E05B085FEA320230
:10314000841A71EB030524BF204629467641F4D347
:1031500002000B003000002170BD70B5B1FA81F49F
:10316000B2FA82F5C4F120046419B4F12006DAD36E
:10317000B2405FF00044F440002502E052085FEAEC
:103180003303C61A71EB020E24BF30467146644108
:103190006D41F3D302000B002000290070BD012017
:1031A00000F0C0B870B44FF0004591EA030F7FF50E
:1031B000EDAC6B40841A71EB030604D26E40001B29
:1031C000B141121973414FF4001C1CEB410F34BF85
:1031D0007CEB430683E00C0DA4EB1356362E00F374
:1031E0007C80012E45EAC32341DC43EA525312BFDF
:1031F000D20292025B08240545EAC12141EA5051FE
:10320000D2EBC020994125D407D1B0FA80F610FA4C
:1032100006F162D00020203608E0B1FA81F6B14014
:10322000C6F1200220FA02F21143B0404FEAF474D2
:10323000B4EB465434F001064FEA74040AD8D6F5CC
:103240000016760D04F00044F04061FA06F250409A
:10325000F1404840C00A40EA415021F0004128BFF7
:103260005FEA500550F1000044EBD12135E0DB0A64
:1032700045EAC121C90AB6F120050EDD42EA024243
:10328000120CC5F1200603FA06F6EB4042EA0605E9
:103290006D42984161F100010DE062FA06F5F240DD
:1032A000554063FA06FC82EA0C02F3405A406D4234
:1032B000904161EB030111F4801F05D1641E62058A
:1032C00002D06D004041494121F48011430875F15D
:1032D000004350F1000041EB045170BC70471CEBFF
:1032E000410F15D223F0004352EA43060BD04FEAB8
:1032F0004C0CBCEB410F04D80C0D661E342EB7DD10
:10330000EBE7801A994150EA410608BF0021E4E743
:1033100008BF1CEB430F28BF6FF00001DDE7000082
:103320007047000080B500F007F8024A110018202D
:10333000ABBEFBE72600020010B500F052F8020019
:103340000023DB4300241068984203D011000220C0
:10335000ABBE14605068984203D0111D0220ABBE72
:10336000546010BDF0B583B0040000F03AF8A1003D
:1033700047183D680026F643B54216D100F01AF80A
:103380003D68B5420FD100BF09A00090002C01D1CB
:10339000002000E0042001900320029069460120F3
:1033A000ABBE05003D6000F014F8280003B0F0BD8E
:1033B0003A7474000C480121BFF35F8FD0E84F3F8F
:1033C000C0E8421F002AF9D1BFF35F8F002BF3D171
:1033D00070470548BFF35F8F00210170BFF35F8F17
:1033E0007047024870470000241100208801002027
:1033F00038B504000ED004F13405287820B9002136
:103400002177204600F01CFE03202870204600F0A3
:103410000AF808B1012032BD686000212163012053
:103420002870002032BD2DE9F8418FB004460020FD
:10343000762603900490059006900790089603A9BD
:1034400083B068461822FFF753FA0EBC206800F0DC
:10345000A1FE00285FD1DFF8005628600027206811
:1034600000F0B3FE012028600021009100262068B2
:1034700000F04AFF002804F134054FF080584ED187
:10348000206800F05AFF70B16E61206800F03CFFC8
:10349000002844D1686901280FD12068002100F07C
:1034A00089FFE0B909E001206861F6E700F064FCFB
:1034B00007460098401CFE0F00904FF6FF700099E1
:1034C00081420ED26EB92068002100F073FF30BB3C
:1034D0002068DFF8881500F078FF0028E6D0404625
:1034E00014E00099814228BF4FF080700ED217F08F
:1034F0008047384618BF012028610121ADF80C1023
:10350000206800F06AFE68B94FF0806001212970E0
:103510006A6810436860012010B0BDE8F08100289F
:10352000EBD0F3E72869032835D0206800F075FF59
:103530000028EBD100F020FC286400F04AF8686411
:10354000082100F047F8A8640C2100F043F8E86473
:10355000286903281FD0206803A900F07CFF0028F9
:10356000D4D12869032816D0BDF80C10E9610904EC
:10357000206800F061FF0028C8D100F0FDFB28633F
:1035800000F027F86863082100F024F8A8630C21F4
:1035900000F020F8E86300F01CF8000DA86104A911
:1035A000204600F06FFA002899D1EA6920681204D9
:1035B000002300F099FE0028A8D183B0211D6846A1
:1035C0001822FFF795F90EBC206800F0E3FD0020FB
:1035D000A2E70421206800F015BE29688C637A6890
:1035E00010437860012038707047796841F00071AD
:1035F00079607047049105926946206800F005BE25
:1036000007B0BDE8F0832DE9F843044686B0904644
:10361000994604F1340521B9686840F0006068609B
:103620000DE0287801286CD100226A6009EB0803BC
:10363000A86A984205D2696841F00071696001206A
:1036400060E00320287040F22A302368DFF8246706
:10365000DA624FEA49272268D36B0343D363BB087E
:10366000E8680FF27172C263E8680FF2B172C26467
:103670000022E86802650A46206800F18001E868D7
:1036800001F0A9F858B12068C16B21F49571C163AC
:1036900020688663696841F08041696010E0DFF866
:1036A000D807012101604FF400712A692068012ABE
:1036B00018BF4FEA482800F0BEFD20B100F027F8FF
:1036C000012028701EE04FF0FF310091022290216E
:1036D00002910392002101220197FFF78BFFB9F1BC
:1036E000010F05D9822000F00EF800F0BAFD04E0C9
:1036F000812000F008F800F0A9FD18B100F00DF8E5
:1037000000E002207CE72063414620687047216882
:103710008E636A6810436860704721688E63002179
:103720006A681043686001202870216370472DE9A2
:10373000F84305465FEA010886B091461E4605F14A
:10374000340704D1786840F00060786064E038782D
:1037500001286CD10021796006EB0902B86A904219
:1037600002D2FFF742FF57E00320387040F21A20E0
:103770002A68DFF80046D1622968CA6B0243CA632F
:10378000B8680FF24161C163B8680FF29161C1641A
:103790000021B868016539692868012918BF4FEA16
:1037A00049294FF4007100F046FD10B1FFF715FFF5
:1037B0003EE0012E06D9A02028634946286800F083
:1037C00066FD05E0902028634946286800F054FD16
:1037D00020B1296800F03AF8296329E0DFF898164B
:1037E000012008607602286800F18002B868B308FA
:1037F000414600F0F0FF88B12968DFF88006CA6B07
:103800000240CA6329688C630121786840F08040D7
:103810007860397000202863012009E000F00DF87D
:1038200001960291059200F004F8002000E00220C9
:10383000E6E66946286800F0E8BC4FF0FF31002258
:103840000091039204929021012270478C63002121
:103850007A68104378600120387070472DE9FC4188
:103860000746D7F830803868416B0A0448BF5FEAE2
:10387000087115D5FD6ABE6A002D10D0203D0824C0
:10388000386800F09CFC3070010A020C000E717068
:10389000B270F070361D641EF2D1BE62FD62D7E0D8
:1038A000416BCA0508F0030407F1340540F23A56AB
:1038B0003BD54FF480718163DFF8C80500F0D0F884
:1038C000C16A49084900C1625FEA087014D518F05E
:1038D000220F05D0386800F0F2FC08B100F0C6F8FD
:1038E00038688663012129700022002C3A6338462B
:1038F00018D001F0FDF8ABE05FEA0860FBD55FEAA5
:10390000886105D5386800F0DAFC08B100F0AEF83F
:10391000002C09D13868C16A21F00801C162012078
:103920002870384601F0E2F892E0416B4A0448BF43
:103930005FEA087122D57D6A3E6A002DF4D0203DF1
:10394000082416F8010B0090014616F8010B41EA15
:1039500000210091084616F8011B40EA0140009042
:1039600016F8011B40EA016000906946386800F0D3
:1039700027FC641EE5D13E627D6269E0416B40F246
:103980003A22114264D0416B8A0703D5696841F03D
:1039900002016960416B0A0700F06EF8416B8A060C
:1039A00003D5696841F020016960416BCA0603D5FF
:1039B000696841F010016960416B8A0500F05CF8AC
:1039C00040F23A718163DFF8C00400F049F800F07A
:1039D00076FC00F05BFA5FEA087007D501212970D8
:1039E00000223A63384601F085F831E05FEA08606A
:1039F0002ED518F0300F05D000F0DCF9002827D0C4
:103A0000A86804E0E4B100F0CEF908B3E868846B7C
:103A100021688E6300F043FA00F05AFA18BF0528B7
:103A2000226303D100F0F7F900F030FA686800284B
:103A3000204602D101F058F80AE001F05BF807E0F7
:103A400000206860012129703863384601F04CF885
:103A5000BDE8F38100000000A0802542000010C1F5
:103A60003968CA6B0240CA6338687047696808439E
:103A70006860384601F03EB803D5696841F0080136
:103A80006960704730B500F134031A6B920F0A7009
:103A90001C6BA40E04F00F044C701A6B120E02F093
:103AA00003028A701A6B120CCA701A6B120A0A711E
:103AB0001A6B4A715C6B240DCC804FF400745A6B06
:103AC000120C02F00F020A725A6BD20B02F00102C2
:103AD0004A725A6B920B02F001028A725A6B520BB5
:103AE00002F00102CA725A6B120B02F001020A7351
:103AF00000224A731A69002A40F08D80586B40F604
:103B0000FC7202EA8002986B42EA90720A6101221A
:103B1000986BC00E00F007000875986B000E00F05F
:103B200007004875986B400D00F007008875986B8A
:103B3000800C00F00700C875986BC00B00F0070000
:103B400008760869401C18620D7E05F00705AD1C5B
:103B500002FA05F5684318620D7A05F00F05AA40D0
:103B60005A62520A50439862DC62986B800B00F0F4
:103B700001004876986BC00900F07F00887693F8C2
:103B8000380000F07F00C876D86BC00F0877D86B7C
:103B9000400F00F003004877D86B800E00F007005C
:103BA0008877D86B800D00F00F00C877D86B400D78
:103BB00000F0010081F8200001F1210000210170D6
:103BC000DA6B120C02F0010242700122D96BC90BB0
:103BD00001F001018170D96B890B01F00101C17005
:103BE000D96B490B01F001010171D96B090B01F08F
:103BF00001014171D96B890A01F003018171D96B0F
:103C0000090A01F00301C171D96BC1F346010172C8
:103C10004272002030BD012A0DD1586B9A6B00040E
:103C200000F47C1040EA1240086108695C62401CA4
:103C30008002186297E70068DFF844128163012070
:103C4000596841F080515960187030BD426C0A606B
:103C5000836C4B60C26C8A60036DCB60426D0A61FD
:103C6000836D4B61C26D8A61006EC8610020704730
:103C70002DE9F841074607F1340489B003200E46C8
:103C800020702169032918BFB6F5805F4AD0B6F5C8
:103C9000006F4FF080654FF400681CD100F0AEF962
:103CA000386800F06AF8800148BF454632D469465A
:103CB000384600F02CF9E8B9019841032AD500F004
:103CC00098F9050026D13868022100F094FB050020
:103CD00020D100251EE00EBB00F090F9386800F0FE
:103CE0004CF8800148BF454614D46946384600F078
:103CF0000EF908B105460DE00198C1030AD500F0A0
:103D000078F9050006D13868002100F074FB050041
:103D100008BF002560680543656007E0606840F003
:103D2000006002E0606840F0805060603D6860685C
:103D300020B15349A9630120207017E078680390EF
:103D40001822B9680491F9680591069603A9786963
:103D50000790BE69089683B06846FEF7C9FD0EBCA1
:103D6000284600F017FA0125257000200AB0BDE8AA
:103D7000F0810000FF0540002068002100F042BAF9
:103D800038B504460025216D2068090400F0A5FB24
:103D900018B1A16B0843A06303E0FFF7EDFFC0F388
:103DA0004325284632BDE9680FF235100865E868FA
:103DB00000F042BDA9680FF2ED000865A86800F0A8
:103DC0003BBD0000806B0068C16B41F48071C16332
:103DD0007047000038B5846B216B822904F13405EB
:103DE00007D100F018F820B100F050F8204600F09C
:103DF00081FE2068C16A21F00801C16240F23A5098
:103E00002168886301222A70002020632046BDE8D3
:103E1000324000F06DBE206800F051BA38B5846BB6
:103E200000F0FCFD022825D004F13405E868416D5E
:103E3000A868406D012918BF012819D121681048D0
:103E400088632068C16B21F49D71C163686840F08C
:103E50008040686000F023F8062818BF052803D1C9
:103E6000FFF7D9FF00F012F801202870002121632C
:103E7000204629E031BD00008C852542E5FDFFFF8D
:103E8000FF054000C53CFFFFC5FCFFFF6968084314
:103E900068607047846B226840F23A519163204613
:103EA0006EE7000038B5FFF7F5FF00F011F818BF16
:103EB0000528226303D1FFF7AEFFFFF7E7FF68682D
:103EC0000028204600D11EE0BDE8324000F012BEBE
:103ED00004F13405012129700022062870470000F2
:103EE00038B5FFF7D7FFFFF7F3FF18BF05282263A8
:103EF00003D1FFF790FFFFF7C9FF6868002820464D
:103F000000D100E0E0E7BDE8324000F0EDBDF8B5DB
:103F100088B004460D4600F0EFFD064600F06EF84E
:103F20002068082100F087F9002700285FD1216D63
:103F3000206800F060F8002859D1082203924FF061
:103F4000FF3102220291059230210122049106974D
:103F5000079202A9FFF751FB206800F04EFA0028F3
:103F600045D12068416B40F22A421142416B0FD18A
:103F70008A0204D500F023F94DF827007F1C00F0D9
:103F8000BBFD801B10F1010FEBD14FF000402EE084
:103F90000A0748BF082108D4416B8A0748BF02219D
:103FA00003D4416B8A0603D52021816308461EE0B5
:103FB00040F23A5181630198010201F47F01020A43
:103FC00041EA006102F47F42114341EA1061296035
:103FD0000098010201F47F0141EA0061000A00F447
:103FE0007F400143009841EA10616960002009B0F8
:103FF000F0BDE1693868090400F0DCB9082200214D
:10400000684600F07FBD000082B0002000900022D2
:104010005848416841F480414160416801F4804161
:10402000009100990092036843F080530360006898
:1040300000F0805000900098072002B000F079BD99
:104040002DE9F84F86B004461422002101A800F0A3
:1040500059FD21684848814274D100224748484FA1
:1040600000924FF00065416941F4006141614FF4F5
:104070008066416901F4006100914FF4805B009912
:1040800000924FF48048036843F0040303604FF448
:104090000009016801F0040100914FF4001A009931
:1040A00000924FF4F851036843F0080303600222C2
:1040B000006800F0080000900098324801910292D8
:1040C0000021039103220C210591049201A900F023
:1040D0009BFD022102910022039204200321019002
:1040E00004910C22059201A9274800F08DFD274874
:1040F00038607D600021B960F96000F026F800F0BA
:104100002CF808B101F084F92764BC63204F1F48E4
:1041100000F1480139607D604022BA600020F860FB
:1041200000F013F8002100F018F808B101F070F960
:10413000E763BC6300220021312000F007FD31203D
:1041400000F021FD07B0BDE8F08F3E61C7F814B064
:10415000C7F818802020F86170473962042078621F
:104160000321B962C7F82C90C7F830A0384600F098
:10417000BBBA000040380240002C014030380240F9
:10418000C40C002000080240000C024058640240A9
:10419000240D00200EB44368DFF82015009A0B4070
:1041A00001991343029A0B4303991343049A0B4357
:1041B000059913430B434360002003B0704737E079
:1041C0000968C0F880100020704780B503210160A5
:1041D000022001F08BF9002002BD006800F003000E
:1041E000704730B50A688260C4680D694B688A6898
:1041F000C9681D431543240B0D4345EA0434C460CC
:10420000002030BD14300858704710B50A6842626B
:104210004B688362C46A8A68CB6824F0F70414434D
:104220000A6949691C4314430C43C462002010BD51
:10423000D0F88000704718B585B000F03CF8102128
:1042400000F030F841F2883210216AE118B585B0EB
:1042500000F031F8112100F025F841F288321121E7
:104260005FE118B585B000F026F8122100F01AF8C9
:1042700041F28832122154E118B585B000F01BF8E4
:10428000182100F00FF841F28832182149E118B5E1
:1042900085B000F010F8192100F004F841F28832DE
:1042A00019213EE101914FF48062002103910492B3
:1042B0000446694695E7402200910292704718B57E
:1042C000402285B000F0A5F80C2100F004F8DFF8DA
:1042D000F0230C2125E10090019103904FF48062BE
:1042E0000492694620467CE718B585B00721009204
:1042F0000191402200F078F804466946FFF771FF0B
:1043000041F2883207210CE118B585B0044600203F
:10431000009001900290FFF7E0FF00F03FF80846A0
:10432000411E30B1606B0206F9D5C520A0630020A4
:1043300001E04FF0004006B010BD18B50821402242
:1043400085B00446019102924FF4D570002100908F
:104350000391FFF7C3FF00F021F80846411E60B14A
:10436000606B10F0450FF8D00005F6D4616B48077C
:1043700006D50421A16304200EE04FF000400BE0BD
:10438000606BC10702D50120A06305E0606B4106A8
:1043900044BF4020A063002006B010BDDFF82423F6
:1043A0001168C9084FF47A73B1FBF3F141F2883018
:1043B0004143704718B585B0FFF77DFF3721FFF700
:1043C00071FF41F288323721ABE018B5044685B061
:1043D000DFF8F4020143009140222921019100F00D
:1043E00003F86946204683E00292002103914FF4CE
:1043F00080620492704718B58AE018B5402285B0F3
:1044000000F007F83321FFF766FF41F288323321CD
:1044100087E0044602920020704718B5C02285B09C
:10442000FFF7F7FF02210090019103904FF48062A3
:1044300004926946204607E018B585B0C022009175
:104440000292092100F05BF8FFF7CBFE204600F056
:10445000FBF806B010BD30B5402285B004460D46CD
:10446000029200200321FFF736FFFFF797FF08466F
:10447000411E60B1606B10F0450FF8D00005F6D416
:10448000616B480706D50421A163042023E04FF0A7
:10449000004020E0606BC10702D50120A0631AE054
:1044A0002069C0B2032818BF012014D1C520A06321
:1044B000606910F4604F03D1000C288000200AE0EE
:1044C000410448BF4FF4005005D400044CBF4FF4E2
:1044D00080504FF4803005B030BD18B585B0FFF77F
:1044E000EAFE0D21FFF7DEFE41F288320D2118E0D1
:1044F000FFF777FE204600F0C7F806B010BD019127
:104500004FF480620021039104920446694670478B
:1045100085B0FFF7D0FE0621FFF7C4FE41F28832D6
:104520000621204600F002F806B010BD38B5654CF3
:1045300025680346ED084FF47A70B5FBF0F042436E
:104540001046421E60B1586B10F0450FF8D00005C0
:10455000F6D45A6B500706D504219963042032BD66
:104560004FF0004032BD586BC20702D5012098635E
:1045700032BDC52098631869C0B2884201D00120BD
:1045800032BD00211846FFF73DFE504A104201D1CE
:10459000002032BD02D54FF0007032BD410001D580
:1045A000402032BD810001D5802032BDC10002D53E
:1045B0004FF4807032BD010102D54FF4007032BD5E
:1045C000410102D54FF4806032BDC10102D54FF4E4
:1045D000006032BD010202D54FF4805032BD41026D
:1045E00002D54FF4005032BD810202D54FF4804015
:1045F00032BDC10202D54FF4004032BD410302D5A5
:104600004FF4003032BD810302D54FF4802032BD1B
:10461000C10302D54FF4002032BD010402D54FF48E
:10462000801032BD410402D54FF4001032BD810428
:1046300002D54FF4800032BD000702D54FF40000D0
:1046400032BD4FF4803032BD1E490A68D2084FF4A3
:104650007A73B2FBF3F241F288314A4311464A1EA3
:1046600049B1416B11F0450FF8D00905F6D4426B02
:10467000510701D52FE02BE0416BCA0703D501217B
:104680008163012070472AE00E490A68D2084FF47E
:104690007A73B2FBF3F241F288314A4311464A1E63
:1046A00049B1416B11F0450FF8D00905F6D4426BC2
:1046B000510701D50FE00BE011E000000081FFFF82
:1046C00000E1F5050C0000200000108008E0FFFD6F
:1046D0004FF0004070470422826304207047C521D8
:1046E000816300207047000070B5044600F004FAB2
:1046F00006460CB9012070BD04F134050020287075
:104700000221697020680268520852000260226823
:104710001068C1070AD500F0EFF9801B0628F6D310
:104720002020286203216970032070BD1368DFF820
:10473000B40261680340A0680B43E1680343206949
:104740000B4361690343A0690B43E1690343206A9A
:104750000B43616A0343042903D1E16A206B0143DF
:104760000B43136023685A69606AD208042840EA40
:10477000C2020AD1A66AE16A324331B1A06988B99E
:10478000002E18BF022E1FD016D35A61204600F00B
:1047900057F9A96A3F228A408260002028620121DD
:1047A000697070BDB0F5005F0AD1032EEDD8DFE867
:1047B00006F00D0B0D03E8E7B1F1C07FE5D105E090
:1047C000022E03D9F61EE0D1C801DED540212962B0
:1047D0000120687070BDF8B5044604F13406002568
:1047E0003078776A012801D10220F2BD01203070B3
:1047F000707801281CD1022070703562204600F0CC
:104800000FF9B06A3F2101FA00F0B8602068016832
:1048100041F016010160F06820B12068016841F0A4
:10482000080101602068016841F00101016001E0B8
:10483000357002252846F2BD90F83510022903D0C4
:104840008022426501207047052180F835100068FC
:104850000268520852000260002070472DE9FC41B6
:10486000044604F1340600205F4900904FF41650CE
:10487000776A0A683D68B2FBF0F8B06A082100F078
:10488000B6F80ED02068026853070AD5026822F0F5
:1048900004020260B06A8140B960316A41F00101EE
:1048A0003162B06A25FA00F1CA070BD521684A695E
:1048B000110607D5012202FA00F0B860306A40F014
:1048C00002003062042100F091F808D021680A68E3
:1048D000930704D5B860306A40F0040030621021BC
:1048E00000F084F81BD021680A68130717D5B86058
:1048F000206801684A0307D5006801030BD5716978
:1049000069B1204688470AE00168CA0503D40168F6
:1049100021F008010160F16809B120468847B06ABA
:10492000202100F064F83FD021680A68D3063BD507
:10493000B8602068717805291CD1026822F016023F
:10494000026000F058F8F068002804BF7069002881
:1049500001D000F05CF83F22B06A8240BA600021CA
:10496000317001227270F169002939D02046BDE80A
:10497000FC41084701684A0307D5006801030FD4CA
:10498000316989B1204688470EE00168CA0507D41D
:10499000016821F010010160002030700122727066
:1049A000B16809B120468847306AC8B1306AC1078A
:1049B00010D50520707000F024F80098401C804548
:1049C000009003D320680168CA07F6D40020307035
:1049D00001217170B16919B12046BDE8FC41084759
:1049E000BDE8F3813F8010F00C000020B06A01FAAE
:1049F00000F0054270472068416921F08001416163
:104A000070472068016849084900016070472068C4
:104A1000016821F00801016070470000406D704797
:104A200030B50468256825F48025256063608068BA
:104A3000402802D1A260E16030BDA160E26030BDDB
:104A400030B5016808A401F0FF02103A1823B2FB48
:104A5000F3F2890A8902A55CC565042A28BF091DED
:104A60008165084630BD00000006101600061016CD
:104A700038B501208DF800009DF8001001290DD1F6
:104A8000184C2046FEF7B4FC050006D14FF4006137
:104A90002046FFF7EDF800B10125284632BD134648
:104AA0000A4610B501460F48FEF7ADFD06E0134675
:104AB0000A4610B501460B48FEF739FE002400B146
:104AC0000124204610BD80B50648FFF759F9042897
:104AD00001D1002002BD012002BD01460148FFF7BF
:104AE000B5B80000A809002000F014BD00F031BEE8
:104AF00000F033BE7047000001484068704700BFB7
:104B00000000002010B5044610460A460146204623
:104B100000F02CFE204610BD0901020002D43148ED
:104B200081547047304B02F00F021A4402F8041C03
:104B300070472E4B19684FF6FF020002114000F437
:104B4000E06008432A4908431860704770B5274B56
:104B50001C68C4F302230124C3F10705052D2EBFF1
:104B60000F2504FA05F56D1E1E1D072E34BF002308
:104B7000DB1E2940994004FA03F3BDE870405B1E38
:104B80001A401143C8E7010007D4012200F01F01B9
:104B9000184B8A40400943F82020704701000BD48D
:104BA000012200F01F01144B8A40400943F82020E5
:104BB000BFF34F8FBFF36F8F704710B5401EB0F13A
:104BC000807F01D3012010BD0C4C60600F214FF09D
:104BD000FF30FFF7A1FF0021A16007202060002027
:104BE00010BD000000E400E018ED00E00CED00E076
:104BF0000000FA0500E100E080E100E010E000E0E4
:104C000000F000B8704700002DE9F84F0D4600266F
:104C10007549764A0F23044601202F68B04000EA08
:104C20000708804540F0C1804FEA460C032707FA89
:104C30000CF76FEA070E6F68012F18BF022F03D021
:104C4000112F18BF122F12D1A768D5F80C900EEAB9
:104C5000070709FA0CF949EA0707A760676827EA16
:104C600000006F68C7F30017B74038436060E06822
:104C7000AF680EEA000007FA0CF73843E060B000B6
:104C80006F68022F18BF122F12D1F70804EB8707A5
:104C900000F01C09D7F820A003FA09FB2AEA0B0A46
:104CA000D5F810B00BFA09F949EA0A09C7F82090BB
:104CB00027680EEA070E2F7907F0030707FA0CF7AB
:104CC00047EA0E0727606F68FF006ED50027009740
:104CD0004FEA960C176847F48047176000F00C0005
:104CE000176807F48047009703FA00FE009F404FC3
:104CF00057F82C7027EA0E0E3E4FBC4208BF002723
:104D000022D03D4FBC4208BF01271DD03B4FBC42C3
:104D100008BF022718D03A4FBC4208BF032713D060
:104D2000384FBC4208BF04270ED0374FBC4208BFE3
:104D3000052709D0354FBC4208BF062704D0344FA1
:104D4000BC420CBF0727082707FA00F0284F40EAAB
:104D50000E0047F82C006FEA08000F6800EA070C05
:104D60006F68FF0348BF48EA0C0CC1F800C04F68E9
:104D700000EA070C6F68BF0348BF48EA0C0CC1F893
:104D800004C08F6800EA070C6F68FF0248BF48EA5A
:104D90000C0CC1F808C0CF6800EA070C68688002F4
:104DA00048BF48EA0C0CC1F80CC0761C0F2E7FF6E9
:104DB00033AFBDE8F18F0069084018BF0120C0B2D1
:104DC000704702B909048161704742690A408A420A
:104DD00008BF0904816170470E4A136803421CBF73
:104DE000106000F0F7BC7047003C014044380240BE
:104DF0000838014000000240000402400008024060
:104E0000000C024000100240001402400018024052
:104E1000001C0240143C0140DFF86C1509780800C2
:104E20001CBFDFF8680500F005BD704700000000FA
:104E300038B52DED028B0022DFF85415DFF854054C
:104E4000DFF85445FBF7B3FF2070221D04F1080181
:104E5000B3A0FCF7B6FA20B17A21DFF8400500F0E4
:104E6000EDFC6168DFF8245548694989801E484394
:104E7000FEF72EF89FEDAB8B53EC182BFEF736F8B0
:104E8000FEF712F80246E26028460FF2885100F061
:104E9000E5FCFFF7C1FF6268A06851894843FEF74F
:104EA00017F853EC182BFEF721F8FDF7FDFF2061F2
:104EB0000246BDEC028B2846BDE838400FF2705127
:104EC00000F0CCBCF8B507460E46DFF8D4543322C8
:104ED00039462846DFF8C044FBF79AFF2070294680
:104EE0003046FCF73FFB20703A46DFF8A064DFF85D
:104EF000B414304600F0B2FC2846FCF740FA2070AB
:104F0000012239462846FBF783FF20702A46962166
:104F10003046FCF7C6FA6768A06879894843FDF710
:104F2000D7FF0022DFF88034FDF7E0FFFDF7BCFF7C
:104F30000246226130460FF2145100F08FFCFFF759
:104F40006BFF2846BDE8F240FCF719BA70B50C4675
:104F5000DFF84C5401461A222846FBF759FF88B95E
:104F60002046FDF78FFC0246DFF82C6406F118039B
:104F700021462846FCF7F5F830702846BDE8704019
:104F8000FCF7FDB970BD0146012270B5DFF8106471
:104F9000DFF804543046FBF73BFF2870642105F12D
:104FA0001C0000F047FC05F11403642205F11C010C
:104FB0003046FCF733F869692870002429B120B91C
:104FC00005F11C0000F00AFD04463046FCF7D7F955
:104FD000204670BD6521F0B5DFF8D043DFF8D0532F
:104FE000607861616160401C6070A3B0DFF8C41339
:104FF000DFF8C4634869DFF8C413A06064230A784B
:105000002078E26020611022211D284600F0ECFC8F
:10501000C922ADF83C2062800FA8317B728A4180A2
:1050200082806423F189328AC180028106F12407DB
:10503000F18AB28A41818281B18B328BC181028235
:105040000FA900F078F8CA206080ADF82800397800
:10505000FA880AA84180828064237988BA88C1804E
:10506000028179893A8941818281398ABA89C181EB
:1050700002820AA900F05FF8CB206080ADF814002E
:10508000397EFA8B05A8418082806423798BBA8BA4
:10509000C1800281798C3A8C41818281398DBA8CB0
:1050A000C181028205A900F046F8CC206080ADF8ED
:1050B0000000694606F154000278C3884A808B805C
:1050C00042888388CA800B81428903894A818B8107
:1050D0006423028A8089CA81088200F02CF86078F3
:1050E000052819D1A6A014A902680FF27C300A6025
:1050F00000F01CF80FF27C3000F018F80FF280304E
:1051000000F014F80FF2843000F010F864233C2211
:1051100000F012F800206070002023B0F0BD000005
:1051200000000000000000000000E03F90E84C009C
:1051300081E84C0070471222284600F055BC000060
:105140002DE9F04F87B000F095FD00F0ADFD00F0C7
:105150001DFE00F063FE00F08DFE00F0D5FE00F0B5
:1051600023FF00F069FF9648964C0FF24039DFF8B4
:1051700058A2DFF858B200F09CFF01F094F901F05A
:10518000B1F901F01AFA01F031FA0020009004F1AF
:1051900088058F48016841F08001016004F194089E
:1051A000026802F0800200920022009900920368D7
:1051B00043F004030360016801F0040100910099C9
:1051C0000092036843F008030360016801F00801DE
:1051D0000091009900920021036843F4800303606A
:1051E000006800F48000009000983B20FFF7AEFCC0
:1051F0003B20FFF7C8FC002200214520FFF7A6FC5A
:105200004520FFF7C0FC734860600021A160E160A9
:1052100021616161A161E161FCF7F8F9FFF708FE26
:1052200001F08CFA286001F091FA6860624D05F196
:10523000540605F1240701F0D7FA4FF4FA7000F094
:1052400055F92078401C2070012204F19001624839
:1052500001F073FB6148017801290AD19BF8000035
:10526000012804D102F037F800208BF8000002F08A
:105270007BF89AF80000012814D10A2186A0FFF7D4
:1052800082FE4C49401C486183A0B06140464A6997
:105290003CA100F0E3FAB0694146FFF757FE002059
:1052A0008AF800002178142962DB00BF7CA100F09D
:1052B0009EF8698B6B8A2A7B00F094F8A98B288B67
:1052C00005900491A88AE98A03900291288AE989C5
:1052D00000F094F800F08FF800F096F87AA100F052
:1052E00086F8F989FB883A7800F07CF8398AB88921
:1052F000059004913889798903900291B88879885A
:1053000000F07CF800F077F800F07EF871A100F072
:105310006EF8F98CFB8B3A7E00F064F8398DB88C0E
:1053200005900491388C798C03900291B88B798B1D
:1053300000F064F800F05FF800F066F868A100F093
:1053400056F8F189F388327800F04CF8318AB08948
:10535000059004913089718903900291B088718819
:1053600000F04CF800F047F800F04EF800202070F4
:105370001B490A78012A01D1FFF72CFE5BE70000E8
:105380003330310025640000900100202C0B0020F8
:10539000F810002094010020C40B0020E4930008C2
:1053A000C4030020F89500080000E03F941000209E
:1053B000840D0020301000206C0A002054100020C2
:1053C000100F0020A4090020B81000202311002095
:1053D00030380240002C0140900F002022110020A4
:1053E00057100020069105F17000B061704705F17B
:1053F000700000F033BAB069414663E50190009156
:105400004046494600F02ABA3221404600F012BA1E
:10541000704700005344204341524420546F74614C
:105420006C2053697A653A2009256C750A000000E2
:105430005344204361726420467265652053706155
:1054400063653A20092531750A0000005344204362
:1054500061726420467265652053706163653A200D
:10546000092531750A0A0000524143454230324154
:105470003030310052414345423032413030320009
:10548000524143454230324130303300524143456E
:1054900042303241303034004F444F2E5458540083
:1054A000626174312E7478740000000025642C252C
:1054B000642C25642C25642C25642C25642C2564FF
:1054C0002C25642C25640A00626174322E74787471
:1054D00000000000626174332E74787400000000D4
:1054E000626174342E7478740000000038B504468C
:1054F000FFF702FB14F1010F054602D004480178C2
:105500006418FFF7F9FA401BA042FAD331BD00BF7F
:10551000000000207047000038B50446FFF7ECFAA1
:105520000546FFF7E9FA401BA04204D2FFF7CBFA89
:105530000028F6D132BD4FF0FF3032BD10B5894C96
:1055400001202070FFF7BFFA18B9207800F0FE00A4
:105550002070207810BD38B50446FFF789FA814DD8
:1055600018B92046FFF7EAFF2870287832BDE5E732
:105570002DE9F84F47F23058894600F0BEF8012473
:10558000002826D419F0030023D100965146009A32
:10559000754E4846FFF783FAE0B97060FFF7ACFA42
:1055A0000546706820B9FFF7A7FA401B4045F8D3BD
:1055B000706870B100217160FFF79EFA0646FFF730
:1055C0009BFA801B404504D2FFF77DFA0028F6D1F4
:1055D000002496E0002509E04FF4007206F108016E
:1055E0004846FDF785F909F500796D1C009885425C
:1055F00019D20122514606F10800FFF750FA07467A
:105600000AF1010A78B900217160FFF775FA834643
:10561000706828B9FFF770FAA0EB0B004045F7D38C
:1056200070680028D8D10098854204BFFFB2002FCF
:10563000CFD1CDE72DE9F84F89464B4D00212960A8
:1056400047F2305800F059F80124002824D419F00A
:10565000030021D10096324651464846FFF727FA0B
:10566000D8B9FFF749FA0646286820B9FFF744FA87
:10567000801B4045F8D3286870B100212960FFF7EE
:105680003BFA0546FFF738FA401B404504D2FFF7C6
:105690001AFA0028F6D1002433E0002609E04FF47E
:1056A000007205F108014846FDF722F909F5007975
:1056B000761C0098864219D20021296001225146A9
:1056C00005F10800FFF7F3F907460AF1010A68B986
:1056D000FFF712FA8346286828B9FFF70DFAA0EB06
:1056E0000B004045F7D328680028D8D1009886429F
:1056F00004BFFFB2002FCFD1CDE792461E464046F1
:105700000AE72046BDE8F28F10B5164888B0144667
:105710000278D30748BF032019D4032916D8DFE83D
:1057200001F01302070D6846FFF7D7F906980AE063
:105730006846FFF7D2F90798208005E06846FFF732
:10574000CCF90798400A2060002000E0042008B04F
:1057500010BD0549012008607047034901204860D9
:105760007047000091010020F405002062F30F2231
:1057700062F31F42401810F0030308D0C91A1FD368
:10578000DB0748BF00F8012D28BF20F8022D1300C9
:1057900030B414461546103928BF20E93C00FAD829
:1057A000490728BF20E90C0048BF40F8042D8900B4
:1057B00028BF20F8022D48BF00F8012D30BC7047EB
:1057C000C91818BF00F8012DCB0728BF00F8012D1C
:1057D0007047000070B54028014604D111480168A7
:1057E000491C016070BD10281BD10F4D0F4E104C8D
:1057F0002846FFF7E0FA3178884210D01021284679
:10580000FFF7D9FA0128307004D120701720FFF774
:10581000BAF904E0002020701720FFF7BFF901203B
:10582000207070BDCC10002000100240221100201A
:1058300023110020002201F071BF000010B50C46BA
:1058400001F086FF4FEA0401BDE8104001A001F01D
:105850007FBF00000A25640A000000000CB430B5C8
:1058600083B00A4606A902910446002501940095DA
:1058700002AB01A9084878441E30FBF7F5FE019AF7
:10588000157000284EBF04460198041B204603B043
:1058900030BC5DF80CFB00BF0FD1FFFF2DE9F84FC6
:1058A00084B00E4617460BB100221A600446A0468B
:1058B00001E008F1010898F8000001F05DFF002800
:1058C000F7D198F800002D2816BF2B2818F8015B97
:1058D0002B25002F019603D4012F01D0252F03DBA8
:1058E000002E55D0346053E0002F0CDD102F04BF84
:1058F00098F80000302802BF98F8010040F020001E
:10590000782811D10CE098F80000302818BF0A2739
:105910000AD198F8010040F02000782803D1102720
:1059200008F1020800E00827CDF80C8001E008F13A
:10593000010898F800003028F9D0064E7E4414364D
:105940004FF0000906F12800CDF80880CA468DF80E
:1059500000000BE0C43B00009DF80010401ACA464E
:105960005FFA80FB07FB09B908F1010898F800000D
:1059700001F00CFF01463A4606F12800FCF78CFFC7
:105980000028E9D10399414504D1019800B1046090
:10599000002020E00299F05DA8EB0101081A002820
:1059A00010D406DCB9EB0B0103D3B1FBF7F0504583
:1059B00008D0AFF30080049808B1012101604FF0D6
:1059C000FF3903E02D2D08BFC9F10009019808B186
:1059D000C0F80080484605B0BDE8F08FFFE700231F
:1059E0000A2200215AE700002DE9F84300F0A3F84D
:1059F000984608BF022000F0888001203870FFF729
:105A00007BF87978012918BF02267CD1002C18BFB9
:105A1000B9F1000F76D0032179707E602C63A5F870
:105A20003490A5F83690AE63AE87EE876E642E6430
:105A3000AB68B3F5004F04D129680B6843F4804389
:105A40000B6029680B685C0603D40B6843F04003C5
:105A50000B604446E968B1F5006F696821D10029FF
:105A600018BFB9F1010F00F07BF8804604E0296B04
:105A70000A88C26000F051F8E88E002833D0286808
:105A800081688A07F3D4FFF737F8A0EB0800A0423B
:105A900004D314F1010FEFD0032634E0002CEBD136
:105AA000FAE7002918BFB9F1010F00F04DF8804660
:105AB00006E0296B0A780273286B411C00F02FF86E
:105AC000E88E80B1286881688A07F2D4FFF714F85D
:105AD000A0EB0800A04203D314F1010FF0D0DBE7E4
